:02000000F32FDC
:100CDA00F00083160313981683120C1E752E762EB7
:100CEA00712E700899000800831203131816981CB5
:100CFA007F2E802E822E181218168C1E852E862E76
:100D0A00822E1A0808008316031318158312031378
:100D1A002608AA002708AB002808AC002908AD005D
:100D2A0004300310AA0DAB0DAC0DAD0DFF3E031D33
:100D3A00962E2D08F3002C08F2002B08F1002A0841
:100D4A00F0002608AE002708AF002808B0002908DE
:100D5A00B10004300310AE0DAF0DB00DB10DFF3E62
:100D6A00031DAF2E0030B2000930B3003D30B4008D
:100D7A000030B5002E08B2022F08031C2F0FC62E12
:100D8A00C72EB3023008031C300FCC2ECD2EB4026E
:100D9A003108031C310FD22ED32EB5023508F700C5
:100DAA003408F6003308F5003208F40056277108B3
:100DBA00FA007008F90079088316031399001812CB
:100DCA008312031398178316031386140615080053
:100DDA0083160313061006168616061786170030A2
:100DEA0083120313A9000030A8002530A700803021
:100DFA00A60088268316031385010730831203137E
:100E0A009F0085010610C530BD00C5306D267926C4
:100E1A0083120313BD003D08BC003D18152F192F7E
:100E2A008312031305141C2F8312031305103D08A4
:100E3A00FB0001300310FB0CFF3E031D1F2F7B1824
:100E4A00272F2B2F8312031385142E2F831203139C
:100E5A0085103D08FB0002300310FB0CFF3E031D0A
:100E6A00312F7B18392F3D2F831203130515402F7D
:100E7A008312031305113D08FB0003300310FB0C1A
:100E8A00FF3E031D432F7B184B2F4F2F8312031353
:100E9A008515522F8312031385113C086D260C2FDA
:100EAA00002883120313A101F31F5C2F5D2F6A2F01
:100EBA00F009F109F209F309F00A0319F10A031911
:100ECA00F20A0319F30AA101A10AF71F6D2F6E2F67
:100EDA007D2FF409F509F609F709F40A0319F50A49
:100EEA000319F60A0319F70A0130FF007F08A10661
:100EFA000030A5000030A4000030A3000030A2009A
:100F0A00730872047104700403198C2F8D2FDA2F61
:100F1A00A001A00A9D2F0130F8000310F00DF10D79
:100F2A00F20DF30DF80B922F0130FF007F08A00796
:100F3A00F31FA02FA12F902F0130F8000310A20D4C
:100F4A00A30DA40DA50DF80BA32F73087702031D9B
:100F5A00B82F72087602031DB82F71087502031D97
:100F6A00B82F70087402031CBB2FBC2FCB2F70083C
:100F7A00F4027108031C710FF5027208031C720F48
:100F8A00F6027308031C730FF702221401300310D0
:100F9A00F30CF20CF10CF00CFF3E031DCC2F0130C8
:100FAA00A002031DD92FDA2FA12F21080319DE2F42
:100FBA00DF2FEA2FA209A309A409A509A20A031986
:100FCA00A30A0319A40A0319A50A2508F300240889
:100FDA00F2002308F1002208F0000800FC01FD01DC
:100FEA0083120313B601B701B801B901BA01BB01F3
:060FFA00BC018301ED2E95
:02400E00383F39
:00000001FF
